{
  "_format": "hh-sol-artifact-1",
  "contractName": "nftMint",
  "sourceName": "contracts/nftMint.sol",
  "abi": [
    {
      "inputs": [
        {
          "internalType": "string",
          "name": "baseURI",
          "type": "string"
        }
      ],
      "stateMutability": "nonpayable",
      "type": "constructor"
    },
    {
      "anonymous": false,
      "inputs": [
        {
          "indexed": true,
          "internalType": "address",
          "name": "owner",
          "type": "address"
        },
        {
          "indexed": true,
          "internalType": "address",
          "name": "approved",
          "type": "address"
        },
        {
          "indexed": true,
          "internalType": "uint256",
          "name": "tokenId",
          "type": "uint256"
        }
      ],
      "name": "Approval",
      "type": "event"
    },
    {
      "anonymous": false,
      "inputs": [
        {
          "indexed": true,
          "internalType": "address",
          "name": "owner",
          "type": "address"
        },
        {
          "indexed": true,
          "internalType": "address",
          "name": "operator",
          "type": "address"
        },
        {
          "indexed": false,
          "internalType": "bool",
          "name": "approved",
          "type": "bool"
        }
      ],
      "name": "ApprovalForAll",
      "type": "event"
    },
    {
      "anonymous": false,
      "inputs": [
        {
          "indexed": true,
          "internalType": "address",
          "name": "previousOwner",
          "type": "address"
        },
        {
          "indexed": true,
          "internalType": "address",
          "name": "newOwner",
          "type": "address"
        }
      ],
      "name": "OwnershipTransferred",
      "type": "event"
    },
    {
      "anonymous": false,
      "inputs": [
        {
          "indexed": true,
          "internalType": "address",
          "name": "from",
          "type": "address"
        },
        {
          "indexed": true,
          "internalType": "address",
          "name": "to",
          "type": "address"
        },
        {
          "indexed": true,
          "internalType": "uint256",
          "name": "tokenId",
          "type": "uint256"
        }
      ],
      "name": "Transfer",
      "type": "event"
    },
    {
      "inputs": [
        {
          "internalType": "address",
          "name": "to",
          "type": "address"
        },
        {
          "internalType": "uint256",
          "name": "tokenId",
          "type": "uint256"
        }
      ],
      "name": "approve",
      "outputs": [],
      "stateMutability": "nonpayable",
      "type": "function"
    },
    {
      "inputs": [
        {
          "internalType": "address",
          "name": "owner",
          "type": "address"
        }
      ],
      "name": "balanceOf",
      "outputs": [
        {
          "internalType": "uint256",
          "name": "",
          "type": "uint256"
        }
      ],
      "stateMutability": "view",
      "type": "function"
    },
    {
      "inputs": [],
      "name": "baseExtension",
      "outputs": [
        {
          "internalType": "string",
          "name": "",
          "type": "string"
        }
      ],
      "stateMutability": "view",
      "type": "function"
    },
    {
      "inputs": [],
      "name": "baseTokenURI",
      "outputs": [
        {
          "internalType": "string",
          "name": "",
          "type": "string"
        }
      ],
      "stateMutability": "view",
      "type": "function"
    },
    {
      "inputs": [],
      "name": "cost",
      "outputs": [
        {
          "internalType": "uint256",
          "name": "",
          "type": "uint256"
        }
      ],
      "stateMutability": "view",
      "type": "function"
    },
    {
      "inputs": [],
      "name": "flipSaleState",
      "outputs": [],
      "stateMutability": "nonpayable",
      "type": "function"
    },
    {
      "inputs": [
        {
          "internalType": "uint256",
          "name": "tokenId",
          "type": "uint256"
        }
      ],
      "name": "getApproved",
      "outputs": [
        {
          "internalType": "address",
          "name": "",
          "type": "address"
        }
      ],
      "stateMutability": "view",
      "type": "function"
    },
    {
      "inputs": [
        {
          "internalType": "address",
          "name": "owner",
          "type": "address"
        },
        {
          "internalType": "address",
          "name": "operator",
          "type": "address"
        }
      ],
      "name": "isApprovedForAll",
      "outputs": [
        {
          "internalType": "bool",
          "name": "",
          "type": "bool"
        }
      ],
      "stateMutability": "view",
      "type": "function"
    },
    {
      "inputs": [],
      "name": "isSaleActive",
      "outputs": [
        {
          "internalType": "bool",
          "name": "",
          "type": "bool"
        }
      ],
      "stateMutability": "view",
      "type": "function"
    },
    {
      "inputs": [],
      "name": "maxPerMint",
      "outputs": [
        {
          "internalType": "uint256",
          "name": "",
          "type": "uint256"
        }
      ],
      "stateMutability": "view",
      "type": "function"
    },
    {
      "inputs": [],
      "name": "maxSupply",
      "outputs": [
        {
          "internalType": "uint256",
          "name": "",
          "type": "uint256"
        }
      ],
      "stateMutability": "view",
      "type": "function"
    },
    {
      "inputs": [
        {
          "internalType": "uint256",
          "name": "_count",
          "type": "uint256"
        }
      ],
      "name": "mintNFTs",
      "outputs": [],
      "stateMutability": "payable",
      "type": "function"
    },
    {
      "inputs": [],
      "name": "name",
      "outputs": [
        {
          "internalType": "string",
          "name": "",
          "type": "string"
        }
      ],
      "stateMutability": "view",
      "type": "function"
    },
    {
      "inputs": [],
      "name": "owner",
      "outputs": [
        {
          "internalType": "address",
          "name": "",
          "type": "address"
        }
      ],
      "stateMutability": "view",
      "type": "function"
    },
    {
      "inputs": [
        {
          "internalType": "uint256",
          "name": "tokenId",
          "type": "uint256"
        }
      ],
      "name": "ownerOf",
      "outputs": [
        {
          "internalType": "address",
          "name": "",
          "type": "address"
        }
      ],
      "stateMutability": "view",
      "type": "function"
    },
    {
      "inputs": [
        {
          "internalType": "address",
          "name": "_user",
          "type": "address"
        }
      ],
      "name": "removeWhitelistUser",
      "outputs": [],
      "stateMutability": "nonpayable",
      "type": "function"
    },
    {
      "inputs": [],
      "name": "renounceOwnership",
      "outputs": [],
      "stateMutability": "nonpayable",
      "type": "function"
    },
    {
      "inputs": [
        {
          "internalType": "address",
          "name": "from",
          "type": "address"
        },
        {
          "internalType": "address",
          "name": "to",
          "type": "address"
        },
        {
          "internalType": "uint256",
          "name": "tokenId",
          "type": "uint256"
        }
      ],
      "name": "safeTransferFrom",
      "outputs": [],
      "stateMutability": "nonpayable",
      "type": "function"
    },
    {
      "inputs": [
        {
          "internalType": "address",
          "name": "from",
          "type": "address"
        },
        {
          "internalType": "address",
          "name": "to",
          "type": "address"
        },
        {
          "internalType": "uint256",
          "name": "tokenId",
          "type": "uint256"
        },
        {
          "internalType": "bytes",
          "name": "data",
          "type": "bytes"
        }
      ],
      "name": "safeTransferFrom",
      "outputs": [],
      "stateMutability": "nonpayable",
      "type": "function"
    },
    {
      "inputs": [
        {
          "internalType": "address",
          "name": "operator",
          "type": "address"
        },
        {
          "internalType": "bool",
          "name": "approved",
          "type": "bool"
        }
      ],
      "name": "setApprovalForAll",
      "outputs": [],
      "stateMutability": "nonpayable",
      "type": "function"
    },
    {
      "inputs": [
        {
          "internalType": "string",
          "name": "_newBaseExtension",
          "type": "string"
        }
      ],
      "name": "setBaseExtension",
      "outputs": [],
      "stateMutability": "nonpayable",
      "type": "function"
    },
    {
      "inputs": [
        {
          "internalType": "string",
          "name": "_baseTokenURI",
          "type": "string"
        }
      ],
      "name": "setBaseURI",
      "outputs": [],
      "stateMutability": "nonpayable",
      "type": "function"
    },
    {
      "inputs": [
        {
          "internalType": "uint256",
          "name": "_newCost",
          "type": "uint256"
        }
      ],
      "name": "setCost",
      "outputs": [],
      "stateMutability": "nonpayable",
      "type": "function"
    },
    {
      "inputs": [
        {
          "internalType": "uint256",
          "name": "_newmaxPerMint",
          "type": "uint256"
        }
      ],
      "name": "setmaxMintAmount",
      "outputs": [],
      "stateMutability": "nonpayable",
      "type": "function"
    },
    {
      "inputs": [
        {
          "internalType": "bytes4",
          "name": "interfaceId",
          "type": "bytes4"
        }
      ],
      "name": "supportsInterface",
      "outputs": [
        {
          "internalType": "bool",
          "name": "",
          "type": "bool"
        }
      ],
      "stateMutability": "view",
      "type": "function"
    },
    {
      "inputs": [],
      "name": "symbol",
      "outputs": [
        {
          "internalType": "string",
          "name": "",
          "type": "string"
        }
      ],
      "stateMutability": "view",
      "type": "function"
    },
    {
      "inputs": [
        {
          "internalType": "uint256",
          "name": "index",
          "type": "uint256"
        }
      ],
      "name": "tokenByIndex",
      "outputs": [
        {
          "internalType": "uint256",
          "name": "",
          "type": "uint256"
        }
      ],
      "stateMutability": "view",
      "type": "function"
    },
    {
      "inputs": [
        {
          "internalType": "address",
          "name": "owner",
          "type": "address"
        },
        {
          "internalType": "uint256",
          "name": "index",
          "type": "uint256"
        }
      ],
      "name": "tokenOfOwnerByIndex",
      "outputs": [
        {
          "internalType": "uint256",
          "name": "",
          "type": "uint256"
        }
      ],
      "stateMutability": "view",
      "type": "function"
    },
    {
      "inputs": [
        {
          "internalType": "uint256",
          "name": "tokenId",
          "type": "uint256"
        }
      ],
      "name": "tokenURI",
      "outputs": [
        {
          "internalType": "string",
          "name": "",
          "type": "string"
        }
      ],
      "stateMutability": "view",
      "type": "function"
    },
    {
      "inputs": [],
      "name": "totalSupply",
      "outputs": [
        {
          "internalType": "uint256",
          "name": "",
          "type": "uint256"
        }
      ],
      "stateMutability": "view",
      "type": "function"
    },
    {
      "inputs": [
        {
          "internalType": "address",
          "name": "from",
          "type": "address"
        },
        {
          "internalType": "address",
          "name": "to",
          "type": "address"
        },
        {
          "internalType": "uint256",
          "name": "tokenId",
          "type": "uint256"
        }
      ],
      "name": "transferFrom",
      "outputs": [],
      "stateMutability": "nonpayable",
      "type": "function"
    },
    {
      "inputs": [
        {
          "internalType": "address",
          "name": "newOwner",
          "type": "address"
        }
      ],
      "name": "transferOwnership",
      "outputs": [],
      "stateMutability": "nonpayable",
      "type": "function"
    },
    {
      "inputs": [
        {
          "internalType": "address",
          "name": "_owner",
          "type": "address"
        }
      ],
      "name": "walletOfOwner",
      "outputs": [
        {
          "internalType": "uint256[]",
          "name": "",
          "type": "uint256[]"
        }
      ],
      "stateMutability": "view",
      "type": "function"
    },
    {
      "inputs": [
        {
          "internalType": "address",
          "name": "_user",
          "type": "address"
        }
      ],
      "name": "whitelistUser",
      "outputs": [],
      "stateMutability": "nonpayable",
      "type": "function"
    },
    {
      "inputs": [
        {
          "internalType": "address",
          "name": "",
          "type": "address"
        }
      ],
      "name": "whitelisted",
      "outputs": [
        {
          "internalType": "bool",
          "name": "",
          "type": "bool"
        }
      ],
      "stateMutability": "view",
      "type": "function"
    },
    {
      "inputs": [],
      "name": "withdraw",
      "outputs": [],
      "stateMutability": "payable",
      "type": "function"
    }
  ],
  "bytecode": "0x60806040526040518060400160405280600481526020017f2e706e6700000000000000000000000000000000000000000000000000000000815250600e90805190602001906200005192919062000322565b5066038d7ea4c68000600f5560016010553480156200006f57600080fd5b5060405162004cf038038062004cf0833981810160405281019062000095919062000444565b6040518060400160405280600381526020017f4e465400000000000000000000000000000000000000000000000000000000008152506040518060400160405280600581526020017f4d794e465400000000000000000000000000000000000000000000000000000081525081600090805190602001906200011992919062000322565b5080600190805190602001906200013292919062000322565b50505062000155620001496200016d60201b60201c565b6200017560201b60201c565b62000166816200023b60201b60201c565b506200067c565b600033905090565b6000600660009054906101000a900473ffffffffffffffffffffffffffffffffffffffff16905081600660006101000a81548173ffffffffffffffffffffffffffffffffffffffff021916908373ffffffffffffffffffffffffffffffffffffffff1602179055508173ffffffffffffffffffffffffffffffffffffffff168173ffffffffffffffffffffffffffffffffffffffff167f8be0079c531659141344cd1fd0a4f28419497f9722a3daafe3b4186f6b6457e060405160405180910390a35050565b6200024b6200026760201b60201c565b80600d90805190602001906200026392919062000322565b5050565b620002776200016d60201b60201c565b73ffffffffffffffffffffffffffffffffffffffff166200029d620002f860201b60201c565b73ffffffffffffffffffffffffffffffffffffffff1614620002f6576040517f08c379a0000000000000000000000000000000000000000000000000000000008152600401620002ed90620004b0565b60405180910390fd5b565b6000600660009054906101000a900473ffffffffffffffffffffffffffffffffffffffff16905090565b828054620003309062000578565b90600052602060002090601f016020900481019282620003545760008555620003a0565b82601f106200036f57805160ff1916838001178555620003a0565b82800160010185558215620003a0579182015b828111156200039f57825182559160200191906001019062000382565b5b509050620003af9190620003b3565b5090565b5b80821115620003ce576000816000905550600101620003b4565b5090565b6000620003e9620003e384620004fb565b620004d2565b9050828152602081018484840111156200040257600080fd5b6200040f84828562000542565b509392505050565b600082601f8301126200042957600080fd5b81516200043b848260208601620003d2565b91505092915050565b6000602082840312156200045757600080fd5b600082015167ffffffffffffffff8111156200047257600080fd5b620004808482850162000417565b91505092915050565b60006200049860208362000531565b9150620004a58262000653565b602082019050919050565b60006020820190508181036000830152620004cb8162000489565b9050919050565b6000620004de620004f1565b9050620004ec8282620005ae565b919050565b6000604051905090565b600067ffffffffffffffff82111562000519576200051862000613565b5b620005248262000642565b9050602081019050919050565b600082825260208201905092915050565b60005b838110156200056257808201518184015260208101905062000545565b8381111562000572576000848401525b50505050565b600060028204905060018216806200059157607f821691505b60208210811415620005a857620005a7620005e4565b5b50919050565b620005b98262000642565b810181811067ffffffffffffffff82111715620005db57620005da62000613565b5b80604052505050565b7f4e487b7100000000000000000000000000000000000000000000000000000000600052602260045260246000fd5b7f4e487b7100000000000000000000000000000000000000000000000000000000600052604160045260246000fd5b6000601f19601f8301169050919050565b7f4f776e61626c653a2063616c6c6572206973206e6f7420746865206f776e6572600082015250565b614664806200068c6000396000f3fe60806040526004361061020f5760003560e01c806355f804b311610118578063b88d4fde116100a0578063d5abeb011161006f578063d5abeb011461076d578063d936547e14610798578063da3ef23f146107d5578063e985e9c5146107fe578063f2fde38b1461083b5761020f565b8063b88d4fde146106b1578063c6682862146106da578063c87b56dd14610705578063d547cfb7146107425761020f565b8063715018a6116100e7578063715018a6146105f25780637f00c7a6146106095780638da5cb5b1461063257806395d89b411461065d578063a22cb465146106885761020f565b806355f804b314610524578063564566a81461054d5780636352211e1461057857806370a08231146105b55761020f565b806334918dfd1161019b578063438b63001161016a578063438b63001461042d57806344a0d68a1461046a5780634a4c560d146104935780634f6ccce7146104bc578063507e094f146104f95761020f565b806334918dfd146103c75780633b4b1381146103de5780633ccfd60b146103fa57806342842e0e146104045761020f565b806313faede6116101e257806313faede6146102e257806318160ddd1461030d57806323b872dd146103385780632f745c591461036157806330cc7ae01461039e5761020f565b806301ffc9a71461021457806306fdde0314610251578063081812fc1461027c578063095ea7b3146102b9575b600080fd5b34801561022057600080fd5b5061023b6004803603810190610236919061331e565b610864565b6040516102489190613947565b60405180910390f35b34801561025d57600080fd5b50610266610876565b6040516102739190613962565b60405180910390f35b34801561028857600080fd5b506102a3600480360381019061029e91906133b1565b610908565b6040516102b091906138be565b60405180910390f35b3480156102c557600080fd5b506102e060048036038101906102db91906132e2565b61094e565b005b3480156102ee57600080fd5b506102f7610a66565b6040516103049190613c24565b60405180910390f35b34801561031957600080fd5b50610322610a6c565b60405161032f9190613c24565b60405180910390f35b34801561034457600080fd5b5061035f600480360381019061035a91906131dc565b610a79565b005b34801561036d57600080fd5b50610388600480360381019061038391906132e2565b610ad9565b6040516103959190613c24565b60405180910390f35b3480156103aa57600080fd5b506103c560048036038101906103c09190613177565b610b7e565b005b3480156103d357600080fd5b506103dc610be1565b005b6103f860048036038101906103f391906133b1565b610c15565b005b610402610ea9565b005b34801561041057600080fd5b5061042b600480360381019061042691906131dc565b610ef1565b005b34801561043957600080fd5b50610454600480360381019061044f9190613177565b610f11565b6040516104619190613925565b60405180910390f35b34801561047657600080fd5b50610491600480360381019061048c91906133b1565b61100b565b005b34801561049f57600080fd5b506104ba60048036038101906104b59190613177565b61101d565b005b3480156104c857600080fd5b506104e360048036038101906104de91906133b1565b611080565b6040516104f09190613c24565b60405180910390f35b34801561050557600080fd5b5061050e611117565b60405161051b9190613c24565b60405180910390f35b34801561053057600080fd5b5061054b60048036038101906105469190613370565b61111d565b005b34801561055957600080fd5b5061056261113f565b60405161056f9190613947565b60405180910390f35b34801561058457600080fd5b5061059f600480360381019061059a91906133b1565b611152565b6040516105ac91906138be565b60405180910390f35b3480156105c157600080fd5b506105dc60048036038101906105d79190613177565b6111d9565b6040516105e99190613c24565b60405180910390f35b3480156105fe57600080fd5b50610607611291565b005b34801561061557600080fd5b50610630600480360381019061062b91906133b1565b6112a5565b005b34801561063e57600080fd5b506106476112b7565b60405161065491906138be565b60405180910390f35b34801561066957600080fd5b506106726112e1565b60405161067f9190613962565b60405180910390f35b34801561069457600080fd5b506106af60048036038101906106aa91906132a6565b611373565b005b3480156106bd57600080fd5b506106d860048036038101906106d3919061322b565b611389565b005b3480156106e657600080fd5b506106ef6113eb565b6040516106fc9190613962565b60405180910390f35b34801561071157600080fd5b5061072c600480360381019061072791906133b1565b611479565b6040516107399190613962565b60405180910390f35b34801561074e57600080fd5b50610757611523565b6040516107649190613962565b60405180910390f35b34801561077957600080fd5b506107826115b1565b60405161078f9190613c24565b60405180910390f35b3480156107a457600080fd5b506107bf60048036038101906107ba9190613177565b6115b6565b6040516107cc9190613947565b60405180910390f35b3480156107e157600080fd5b506107fc60048036038101906107f79190613370565b6115d6565b005b34801561080a57600080fd5b50610825600480360381019061082091906131a0565b6115f8565b6040516108329190613947565b60405180910390f35b34801561084757600080fd5b50610862600480360381019061085d9190613177565b61168c565b005b600061086f82611710565b9050919050565b60606000805461088590613ef1565b80601f01602080910402602001604051908101604052809291908181526020018280546108b190613ef1565b80156108fe5780601f106108d3576101008083540402835291602001916108fe565b820191906000526020600020905b8154815290600101906020018083116108e157829003601f168201915b5050505050905090565b60006109138261178a565b6004600083815260200190815260200160002060009054906101000a900473ffffffffffffffffffffffffffffffffffffffff169050919050565b600061095982611152565b90508073ffffffffffffffffffffffffffffffffffffffff168373ffffffffffffffffffffffffffffffffffffffff1614156109ca576040517f08c379a00000000000000000000000000000000000000000000000000000000081526004016109c190613ba4565b60405180910390fd5b8073ffffffffffffffffffffffffffffffffffffffff166109e96117d5565b73ffffffffffffffffffffffffffffffffffffffff161480610a185750610a1781610a126117d5565b6115f8565b5b610a57576040517f08c379a0000000000000000000000000000000000000000000000000000000008152600401610a4e90613bc4565b60405180910390fd5b610a6183836117dd565b505050565b600f5481565b6000600980549050905090565b610a8a610a846117d5565b82611896565b610ac9576040517f08c379a0000000000000000000000000000000000000000000000000000000008152600401610ac090613984565b60405180910390fd5b610ad483838361192b565b505050565b6000610ae4836111d9565b8210610b25576040517f08c379a0000000000000000000000000000000000000000000000000000000008152600401610b1c906139a4565b60405180910390fd5b600760008473ffffffffffffffffffffffffffffffffffffffff1673ffffffffffffffffffffffffffffffffffffffff168152602001908152602001600020600083815260200190815260200160002054905092915050565b610b86611c25565b6000601260008373ffffffffffffffffffffffffffffffffffffffff1673ffffffffffffffffffffffffffffffffffffffff16815260200190815260200160002060006101000a81548160ff02191690831515021790555050565b610be9611c25565b601160009054906101000a900460ff1615601160006101000a81548160ff021916908315150217905550565b6000610c21600c611ca3565b9050600a610c388383611cb190919063ffffffff16565b1115610c79576040517f08c379a0000000000000000000000000000000000000000000000000000000008152600401610c7090613aa4565b60405180910390fd5b600082118015610c8b57506010548211155b610cca576040517f08c379a0000000000000000000000000000000000000000000000000000000008152600401610cc190613ac4565b60405180910390fd5b610cdf82600f54611cc790919063ffffffff16565b341015610d21576040517f08c379a0000000000000000000000000000000000000000000000000000000008152600401610d1890613a84565b60405180910390fd5b610d296112b7565b73ffffffffffffffffffffffffffffffffffffffff163373ffffffffffffffffffffffffffffffffffffffff1614610dcf5760011515601260003373ffffffffffffffffffffffffffffffffffffffff1673ffffffffffffffffffffffffffffffffffffffff16815260200190815260200160002060009054906101000a900460ff16151514610dce5781600f54610dc19190613dad565b341015610dcd57600080fd5b5b5b60005b82811015610ea4576000610de6600c611ca3565b9050610df23382611cdd565b610e8681600d8054610e0390613ef1565b80601f0160208091040260200160405190810160405280929190818152602001828054610e2f90613ef1565b8015610e7c5780601f10610e5157610100808354040283529160200191610e7c565b820191906000526020600020905b815481529060010190602001808311610e5f57829003601f168201915b5050505050611efb565b610e90600c611f6f565b508080610e9c90613f54565b915050610dd2565b505050565b610eb1611c25565b3373ffffffffffffffffffffffffffffffffffffffff166108fc479081150290604051600060405180830381858888f19350505050610eef57600080fd5b565b610f0c83838360405180602001604052806000815250611389565b505050565b60606000610f1e836111d9565b905060008167ffffffffffffffff811115610f62577f4e487b7100000000000000000000000000000000000000000000000000000000600052604160045260246000fd5b604051908082528060200260200182016040528015610f905781602001602082028036833780820191505090505b50905060005b8281101561100057610fa88582610ad9565b828281518110610fe1577f4e487b7100000000000000000000000000000000000000000000000000000000600052603260045260246000fd5b6020026020010181815250508080610ff890613f54565b915050610f96565b508092505050919050565b611013611c25565b80600f8190555050565b611025611c25565b6001601260008373ffffffffffffffffffffffffffffffffffffffff1673ffffffffffffffffffffffffffffffffffffffff16815260200190815260200160002060006101000a81548160ff02191690831515021790555050565b600061108a610a6c565b82106110cb576040517f08c379a00000000000000000000000000000000000000000000000000000000081526004016110c290613be4565b60405180910390fd5b60098281548110611105577f4e487b7100000000000000000000000000000000000000000000000000000000600052603260045260246000fd5b90600052602060002001549050919050565b60105481565b611125611c25565b80600d908051906020019061113b929190612f9b565b5050565b601160009054906101000a900460ff1681565b60008061115e83611f85565b9050600073ffffffffffffffffffffffffffffffffffffffff168173ffffffffffffffffffffffffffffffffffffffff1614156111d0576040517f08c379a00000000000000000000000000000000000000000000000000000000081526004016111c790613b84565b60405180910390fd5b80915050919050565b60008073ffffffffffffffffffffffffffffffffffffffff168273ffffffffffffffffffffffffffffffffffffffff16141561124a576040517f08c379a000000000000000000000000000000000000000000000000000000000815260040161124190613ae4565b60405180910390fd5b600360008373ffffffffffffffffffffffffffffffffffffffff1673ffffffffffffffffffffffffffffffffffffffff168152602001908152602001600020549050919050565b611299611c25565b6112a36000611fc2565b565b6112ad611c25565b8060108190555050565b6000600660009054906101000a900473ffffffffffffffffffffffffffffffffffffffff16905090565b6060600180546112f090613ef1565b80601f016020809104026020016040519081016040528092919081815260200182805461131c90613ef1565b80156113695780601f1061133e57610100808354040283529160200191611369565b820191906000526020600020905b81548152906001019060200180831161134c57829003601f168201915b5050505050905090565b61138561137e6117d5565b8383612088565b5050565b61139a6113946117d5565b83611896565b6113d9576040517f08c379a00000000000000000000000000000000000000000000000000000000081526004016113d090613984565b60405180910390fd5b6113e5848484846121f5565b50505050565b600e80546113f890613ef1565b80601f016020809104026020016040519081016040528092919081815260200182805461142490613ef1565b80156114715780601f1061144657610100808354040283529160200191611471565b820191906000526020600020905b81548152906001019060200180831161145457829003601f168201915b505050505081565b606061148482612251565b6114c3576040517f08c379a00000000000000000000000000000000000000000000000000000000081526004016114ba90613b64565b60405180910390fd5b60006114cd612292565b905060008151116114ed576040518060200160405280600081525061151b565b806114f784612324565b600e60405160200161150b9392919061388d565b6040516020818303038152906040525b915050919050565b600d805461153090613ef1565b80601f016020809104026020016040519081016040528092919081815260200182805461155c90613ef1565b80156115a95780601f1061157e576101008083540402835291602001916115a9565b820191906000526020600020905b81548152906001019060200180831161158c57829003601f168201915b505050505081565b600a81565b60126020528060005260406000206000915054906101000a900460ff1681565b6115de611c25565b80600e90805190602001906115f4929190612f9b565b5050565b6000600560008473ffffffffffffffffffffffffffffffffffffffff1673ffffffffffffffffffffffffffffffffffffffff16815260200190815260200160002060008373ffffffffffffffffffffffffffffffffffffffff1673ffffffffffffffffffffffffffffffffffffffff16815260200190815260200160002060009054906101000a900460ff16905092915050565b611694611c25565b600073ffffffffffffffffffffffffffffffffffffffff168173ffffffffffffffffffffffffffffffffffffffff161415611704576040517f08c379a00000000000000000000000000000000000000000000000000000000081526004016116fb906139e4565b60405180910390fd5b61170d81611fc2565b50565b60007f780e9d63000000000000000000000000000000000000000000000000000000007bffffffffffffffffffffffffffffffffffffffffffffffffffffffff1916827bffffffffffffffffffffffffffffffffffffffffffffffffffffffff19161480611783575061178282612448565b5b9050919050565b61179381612251565b6117d2576040517f08c379a00000000000000000000000000000000000000000000000000000000081526004016117c990613b84565b60405180910390fd5b50565b600033905090565b816004600083815260200190815260200160002060006101000a81548173ffffffffffffffffffffffffffffffffffffffff021916908373ffffffffffffffffffffffffffffffffffffffff160217905550808273ffffffffffffffffffffffffffffffffffffffff1661185083611152565b73ffffffffffffffffffffffffffffffffffffffff167f8c5be1e5ebec7d5bd14f71427d1e84f3dd0314c0f7b2291e5b200ac8c7c3b92560405160405180910390a45050565b6000806118a283611152565b90508073ffffffffffffffffffffffffffffffffffffffff168473ffffffffffffffffffffffffffffffffffffffff1614806118e457506118e381856115f8565b5b8061192257508373ffffffffffffffffffffffffffffffffffffffff1661190a84610908565b73ffffffffffffffffffffffffffffffffffffffff16145b91505092915050565b8273ffffffffffffffffffffffffffffffffffffffff1661194b82611152565b73ffffffffffffffffffffffffffffffffffffffff16146119a1576040517f08c379a000000000000000000000000000000000000000000000000000000000815260040161199890613a04565b60405180910390fd5b600073ffffffffffffffffffffffffffffffffffffffff168273ffffffffffffffffffffffffffffffffffffffff161415611a11576040517f08c379a0000000000000000000000000000000000000000000000000000000008152600401611a0890613a44565b60405180910390fd5b611a1e838383600161252a565b8273ffffffffffffffffffffffffffffffffffffffff16611a3e82611152565b73ffffffffffffffffffffffffffffffffffffffff1614611a94576040517f08c379a0000000000000000000000000000000000000000000000000000000008152600401611a8b90613a04565b60405180910390fd5b6004600082815260200190815260200160002060006101000a81549073ffffffffffffffffffffffffffffffffffffffff02191690556001600360008573ffffffffffffffffffffffffffffffffffffffff1673ffffffffffffffffffffffffffffffffffffffff168152602001908152602001600020600082825403925050819055506001600360008473ffffffffffffffffffffffffffffffffffffffff1673ffffffffffffffffffffffffffffffffffffffff16815260200190815260200160002060008282540192505081905550816002600083815260200190815260200160002060006101000a81548173ffffffffffffffffffffffffffffffffffffffff021916908373ffffffffffffffffffffffffffffffffffffffff160217905550808273ffffffffffffffffffffffffffffffffffffffff168473ffffffffffffffffffffffffffffffffffffffff167fddf252ad1be2c89b69c2b068fc378daa952ba7f163c4a11628f55a4df523b3ef60405160405180910390a4611c20838383600161253c565b505050565b611c2d6117d5565b73ffffffffffffffffffffffffffffffffffffffff16611c4b6112b7565b73ffffffffffffffffffffffffffffffffffffffff1614611ca1576040517f08c379a0000000000000000000000000000000000000000000000000000000008152600401611c9890613b44565b60405180910390fd5b565b600081600001549050919050565b60008183611cbf9190613d57565b905092915050565b60008183611cd59190613dad565b905092915050565b600073ffffffffffffffffffffffffffffffffffffffff168273ffffffffffffffffffffffffffffffffffffffff161415611d4d576040517f08c379a0000000000000000000000000000000000000000000000000000000008152600401611d4490613b24565b60405180910390fd5b611d5681612251565b15611d96576040517f08c379a0000000000000000000000000000000000000000000000000000000008152600401611d8d90613a24565b60405180910390fd5b611da460008383600161252a565b611dad81612251565b15611ded576040517f08c379a0000000000000000000000000000000000000000000000000000000008152600401611de490613a24565b60405180910390fd5b6001600360008473ffffffffffffffffffffffffffffffffffffffff1673ffffffffffffffffffffffffffffffffffffffff16815260200190815260200160002060008282540192505081905550816002600083815260200190815260200160002060006101000a81548173ffffffffffffffffffffffffffffffffffffffff021916908373ffffffffffffffffffffffffffffffffffffffff160217905550808273ffffffffffffffffffffffffffffffffffffffff16600073ffffffffffffffffffffffffffffffffffffffff167fddf252ad1be2c89b69c2b068fc378daa952ba7f163c4a11628f55a4df523b3ef60405160405180910390a4611ef760008383600161253c565b5050565b611f0482612251565b611f43576040517f08c379a0000000000000000000000000000000000000000000000000000000008152600401611f3a90613b04565b60405180910390fd5b80600b60008481526020019081526020016000209080519060200190611f6a929190612f9b565b505050565b6001816000016000828254019250508190555050565b60006002600083815260200190815260200160002060009054906101000a900473ffffffffffffffffffffffffffffffffffffffff169050919050565b6000600660009054906101000a900473ffffffffffffffffffffffffffffffffffffffff16905081600660006101000a81548173ffffffffffffffffffffffffffffffffffffffff021916908373ffffffffffffffffffffffffffffffffffffffff1602179055508173ffffffffffffffffffffffffffffffffffffffff168173ffffffffffffffffffffffffffffffffffffffff167f8be0079c531659141344cd1fd0a4f28419497f9722a3daafe3b4186f6b6457e060405160405180910390a35050565b8173ffffffffffffffffffffffffffffffffffffffff168373ffffffffffffffffffffffffffffffffffffffff1614156120f7576040517f08c379a00000000000000000000000000000000000000000000000000000000081526004016120ee90613a64565b60405180910390fd5b80600560008573ffffffffffffffffffffffffffffffffffffffff1673ffffffffffffffffffffffffffffffffffffffff16815260200190815260200160002060008473ffffffffffffffffffffffffffffffffffffffff1673ffffffffffffffffffffffffffffffffffffffff16815260200190815260200160002060006101000a81548160ff0219169083151502179055508173ffffffffffffffffffffffffffffffffffffffff168373ffffffffffffffffffffffffffffffffffffffff167f17307eab39ab6107e8899845ad3d59bd9653f200f220920489ca2b5937696c31836040516121e89190613947565b60405180910390a3505050565b61220084848461192b565b61220c84848484612542565b61224b576040517f08c379a0000000000000000000000000000000000000000000000000000000008152600401612242906139c4565b60405180910390fd5b50505050565b60008073ffffffffffffffffffffffffffffffffffffffff1661227383611f85565b73ffffffffffffffffffffffffffffffffffffffff1614159050919050565b6060600d80546122a190613ef1565b80601f01602080910402602001604051908101604052809291908181526020018280546122cd90613ef1565b801561231a5780601f106122ef5761010080835404028352916020019161231a565b820191906000526020600020905b8154815290600101906020018083116122fd57829003601f168201915b5050505050905090565b606060006001612333846126d9565b01905060008167ffffffffffffffff811115612378577f4e487b7100000000000000000000000000000000000000000000000000000000600052604160045260246000fd5b6040519080825280601f01601f1916602001820160405280156123aa5781602001600182028036833780820191505090505b509050600082602001820190505b60011561243d578080600190039150507f3031323334353637383961626364656600000000000000000000000000000000600a86061a8153600a8581612427577f4e487b7100000000000000000000000000000000000000000000000000000000600052601260045260246000fd5b04945060008514156124385761243d565b6123b8565b819350505050919050565b60007f80ac58cd000000000000000000000000000000000000000000000000000000007bffffffffffffffffffffffffffffffffffffffffffffffffffffffff1916827bffffffffffffffffffffffffffffffffffffffffffffffffffffffff1916148061251357507f5b5e139f000000000000000000000000000000000000000000000000000000007bffffffffffffffffffffffffffffffffffffffffffffffffffffffff1916827bffffffffffffffffffffffffffffffffffffffffffffffffffffffff1916145b80612523575061252282612910565b5b9050919050565b6125368484848461297a565b50505050565b50505050565b60006125638473ffffffffffffffffffffffffffffffffffffffff16612ada565b156126cc578373ffffffffffffffffffffffffffffffffffffffff1663150b7a0261258c6117d5565b8786866040518563ffffffff1660e01b81526004016125ae94939291906138d9565b602060405180830381600087803b1580156125c857600080fd5b505af19250505080156125f957506040513d601f19601f820116820180604052508101906125f69190613347565b60015b61267c573d8060008114612629576040519150601f19603f3d011682016040523d82523d6000602084013e61262e565b606091505b50600081511415612674576040517f08c379a000000000000000000000000000000000000000000000000000000000815260040161266b906139c4565b60405180910390fd5b805181602001fd5b63150b7a0260e01b7bffffffffffffffffffffffffffffffffffffffffffffffffffffffff1916817bffffffffffffffffffffffffffffffffffffffffffffffffffffffff1916149150506126d1565b600190505b949350505050565b600080600090507a184f03e93ff9f4daa797ed6e38ed64bf6a1f010000000000000000831061275d577a184f03e93ff9f4daa797ed6e38ed64bf6a1f0100000000000000008381612753577f4e487b7100000000000000000000000000000000000000000000000000000000600052601260045260246000fd5b0492506040810190505b6d04ee2d6d415b85acef810000000083106127c0576d04ee2d6d415b85acef810000000083816127b6577f4e487b7100000000000000000000000000000000000000000000000000000000600052601260045260246000fd5b0492506020810190505b662386f26fc10000831061281557662386f26fc10000838161280b577f4e487b7100000000000000000000000000000000000000000000000000000000600052601260045260246000fd5b0492506010810190505b6305f5e1008310612864576305f5e100838161285a577f4e487b7100000000000000000000000000000000000000000000000000000000600052601260045260246000fd5b0492506008810190505b61271083106128af5761271083816128a5577f4e487b7100000000000000000000000000000000000000000000000000000000600052601260045260246000fd5b0492506004810190505b606483106128f857606483816128ee577f4e487b7100000000000000000000000000000000000000000000000000000000600052601260045260246000fd5b0492506002810190505b600a8310612907576001810190505b80915050919050565b60007f01ffc9a7000000000000000000000000000000000000000000000000000000007bffffffffffffffffffffffffffffffffffffffffffffffffffffffff1916827bffffffffffffffffffffffffffffffffffffffffffffffffffffffff1916149050919050565b61298684848484612afd565b60018111156129ca576040517f08c379a00000000000000000000000000000000000000000000000000000000081526004016129c190613c04565b60405180910390fd5b6000829050600073ffffffffffffffffffffffffffffffffffffffff168573ffffffffffffffffffffffffffffffffffffffff161415612a1257612a0d81612c23565b612a51565b8373ffffffffffffffffffffffffffffffffffffffff168573ffffffffffffffffffffffffffffffffffffffff1614612a5057612a4f8582612c6c565b5b5b600073ffffffffffffffffffffffffffffffffffffffff168473ffffffffffffffffffffffffffffffffffffffff161415612a9457612a8f81612dd9565b612ad3565b8473ffffffffffffffffffffffffffffffffffffffff168473ffffffffffffffffffffffffffffffffffffffff1614612ad257612ad18482612f1c565b5b5b5050505050565b6000808273ffffffffffffffffffffffffffffffffffffffff163b119050919050565b6001811115612c1d57600073ffffffffffffffffffffffffffffffffffffffff168473ffffffffffffffffffffffffffffffffffffffff1614612b915780600360008673ffffffffffffffffffffffffffffffffffffffff1673ffffffffffffffffffffffffffffffffffffffff1681526020019081526020016000206000828254612b899190613e07565b925050819055505b600073ffffffffffffffffffffffffffffffffffffffff168373ffffffffffffffffffffffffffffffffffffffff1614612c1c5780600360008573ffffffffffffffffffffffffffffffffffffffff1673ffffffffffffffffffffffffffffffffffffffff1681526020019081526020016000206000828254612c149190613d57565b925050819055505b5b50505050565b600980549050600a600083815260200190815260200160002081905550600981908060018154018082558091505060019003906000526020600020016000909190919091505550565b60006001612c79846111d9565b612c839190613e07565b9050600060086000848152602001908152602001600020549050818114612d68576000600760008673ffffffffffffffffffffffffffffffffffffffff1673ffffffffffffffffffffffffffffffffffffffff168152602001908152602001600020600084815260200190815260200160002054905080600760008773ffffffffffffffffffffffffffffffffffffffff1673ffffffffffffffffffffffffffffffffffffffff168152602001908152602001600020600084815260200190815260200160002081905550816008600083815260200190815260200160002081905550505b6008600084815260200190815260200160002060009055600760008573ffffffffffffffffffffffffffffffffffffffff1673ffffffffffffffffffffffffffffffffffffffff16815260200190815260200160002060008381526020019081526020016000206000905550505050565b60006001600980549050612ded9190613e07565b90506000600a6000848152602001908152602001600020549050600060098381548110612e43577f4e487b7100000000000000000000000000000000000000000000000000000000600052603260045260246000fd5b906000526020600020015490508060098381548110612e8b577f4e487b7100000000000000000000000000000000000000000000000000000000600052603260045260246000fd5b906000526020600020018190555081600a600083815260200190815260200160002081905550600a6000858152602001908152602001600020600090556009805480612f00577f4e487b7100000000000000000000000000000000000000000000000000000000600052603160045260246000fd5b6001900381819060005260206000200160009055905550505050565b6000612f27836111d9565b905081600760008573ffffffffffffffffffffffffffffffffffffffff1673ffffffffffffffffffffffffffffffffffffffff168152602001908152602001600020600083815260200190815260200160002081905550806008600084815260200190815260200160002081905550505050565b828054612fa790613ef1565b90600052602060002090601f016020900481019282612fc95760008555613010565b82601f10612fe257805160ff1916838001178555613010565b82800160010185558215613010579182015b8281111561300f578251825591602001919060010190612ff4565b5b50905061301d9190613021565b5090565b5b8082111561303a576000816000905550600101613022565b5090565b600061305161304c84613c64565b613c3f565b90508281526020810184848401111561306957600080fd5b613074848285613eaf565b509392505050565b600061308f61308a84613c95565b613c3f565b9050828152602081018484840111156130a757600080fd5b6130b2848285613eaf565b509392505050565b6000813590506130c9816145d2565b92915050565b6000813590506130de816145e9565b92915050565b6000813590506130f381614600565b92915050565b60008151905061310881614600565b92915050565b600082601f83011261311f57600080fd5b813561312f84826020860161303e565b91505092915050565b600082601f83011261314957600080fd5b813561315984826020860161307c565b91505092915050565b60008135905061317181614617565b92915050565b60006020828403121561318957600080fd5b6000613197848285016130ba565b91505092915050565b600080604083850312156131b357600080fd5b60006131c1858286016130ba565b92505060206131d2858286016130ba565b9150509250929050565b6000806000606084860312156131f157600080fd5b60006131ff868287016130ba565b9350506020613210868287016130ba565b925050604061322186828701613162565b9150509250925092565b6000806000806080858703121561324157600080fd5b600061324f878288016130ba565b9450506020613260878288016130ba565b935050604061327187828801613162565b925050606085013567ffffffffffffffff81111561328e57600080fd5b61329a8782880161310e565b91505092959194509250565b600080604083850312156132b957600080fd5b60006132c7858286016130ba565b92505060206132d8858286016130cf565b9150509250929050565b600080604083850312156132f557600080fd5b6000613303858286016130ba565b925050602061331485828601613162565b9150509250929050565b60006020828403121561333057600080fd5b600061333e848285016130e4565b91505092915050565b60006020828403121561335957600080fd5b6000613367848285016130f9565b91505092915050565b60006020828403121561338257600080fd5b600082013567ffffffffffffffff81111561339c57600080fd5b6133a884828501613138565b91505092915050565b6000602082840312156133c357600080fd5b60006133d184828501613162565b91505092915050565b60006133e6838361386f565b60208301905092915050565b6133fb81613e3b565b82525050565b600061340c82613ceb565b6134168185613d19565b935061342183613cc6565b8060005b8381101561345257815161343988826133da565b975061344483613d0c565b925050600181019050613425565b5085935050505092915050565b61346881613e4d565b82525050565b600061347982613cf6565b6134838185613d2a565b9350613493818560208601613ebe565b61349c8161402a565b840191505092915050565b60006134b282613d01565b6134bc8185613d3b565b93506134cc818560208601613ebe565b6134d58161402a565b840191505092915050565b60006134eb82613d01565b6134f58185613d4c565b9350613505818560208601613ebe565b80840191505092915050565b6000815461351e81613ef1565b6135288186613d4c565b94506001821660008114613543576001811461355457613587565b60ff19831686528186019350613587565b61355d85613cd6565b60005b8381101561357f57815481890152600182019150602081019050613560565b838801955050505b50505092915050565b600061359d602d83613d3b565b91506135a88261403b565b604082019050919050565b60006135c0602b83613d3b565b91506135cb8261408a565b604082019050919050565b60006135e3603283613d3b565b91506135ee826140d9565b604082019050919050565b6000613606602683613d3b565b915061361182614128565b604082019050919050565b6000613629602583613d3b565b915061363482614177565b604082019050919050565b600061364c601c83613d3b565b9150613657826141c6565b602082019050919050565b600061366f602483613d3b565b915061367a826141ef565b604082019050919050565b6000613692601983613d3b565b915061369d8261423e565b602082019050919050565b60006136b5602283613d3b565b91506136c082614267565b604082019050919050565b60006136d8601583613d3b565b91506136e3826142b6565b602082019050919050565b60006136fb602583613d3b565b9150613706826142df565b604082019050919050565b600061371e602983613d3b565b91506137298261432e565b604082019050919050565b6000613741602e83613d3b565b915061374c8261437d565b604082019050919050565b6000613764602083613d3b565b915061376f826143cc565b602082019050919050565b6000613787602083613d3b565b9150613792826143f5565b602082019050919050565b60006137aa602f83613d3b565b91506137b58261441e565b604082019050919050565b60006137cd601883613d3b565b91506137d88261446d565b602082019050919050565b60006137f0602183613d3b565b91506137fb82614496565b604082019050919050565b6000613813603d83613d3b565b915061381e826144e5565b604082019050919050565b6000613836602c83613d3b565b915061384182614534565b604082019050919050565b6000613859603583613d3b565b915061386482614583565b604082019050919050565b61387881613ea5565b82525050565b61388781613ea5565b82525050565b600061389982866134e0565b91506138a582856134e0565b91506138b18284613511565b9150819050949350505050565b60006020820190506138d360008301846133f2565b92915050565b60006080820190506138ee60008301876133f2565b6138fb60208301866133f2565b613908604083018561387e565b818103606083015261391a818461346e565b905095945050505050565b6000602082019050818103600083015261393f8184613401565b905092915050565b600060208201905061395c600083018461345f565b92915050565b6000602082019050818103600083015261397c81846134a7565b905092915050565b6000602082019050818103600083015261399d81613590565b9050919050565b600060208201905081810360008301526139bd816135b3565b9050919050565b600060208201905081810360008301526139dd816135d6565b9050919050565b600060208201905081810360008301526139fd816135f9565b9050919050565b60006020820190508181036000830152613a1d8161361c565b9050919050565b60006020820190508181036000830152613a3d8161363f565b9050919050565b60006020820190508181036000830152613a5d81613662565b9050919050565b60006020820190508181036000830152613a7d81613685565b9050919050565b60006020820190508181036000830152613a9d816136a8565b9050919050565b60006020820190508181036000830152613abd816136cb565b9050919050565b60006020820190508181036000830152613add816136ee565b9050919050565b60006020820190508181036000830152613afd81613711565b9050919050565b60006020820190508181036000830152613b1d81613734565b9050919050565b60006020820190508181036000830152613b3d81613757565b9050919050565b60006020820190508181036000830152613b5d8161377a565b9050919050565b60006020820190508181036000830152613b7d8161379d565b9050919050565b60006020820190508181036000830152613b9d816137c0565b9050919050565b60006020820190508181036000830152613bbd816137e3565b9050919050565b60006020820190508181036000830152613bdd81613806565b9050919050565b60006020820190508181036000830152613bfd81613829565b9050919050565b60006020820190508181036000830152613c1d8161384c565b9050919050565b6000602082019050613c39600083018461387e565b92915050565b6000613c49613c5a565b9050613c558282613f23565b919050565b6000604051905090565b600067ffffffffffffffff821115613c7f57613c7e613ffb565b5b613c888261402a565b9050602081019050919050565b600067ffffffffffffffff821115613cb057613caf613ffb565b5b613cb98261402a565b9050602081019050919050565b6000819050602082019050919050565b60008190508160005260206000209050919050565b600081519050919050565b600081519050919050565b600081519050919050565b6000602082019050919050565b600082825260208201905092915050565b600082825260208201905092915050565b600082825260208201905092915050565b600081905092915050565b6000613d6282613ea5565b9150613d6d83613ea5565b9250827fffffffffffffffffffffffffffffffffffffffffffffffffffffffffffffffff03821115613da257613da1613f9d565b5b828201905092915050565b6000613db882613ea5565b9150613dc383613ea5565b9250817fffffffffffffffffffffffffffffffffffffffffffffffffffffffffffffffff0483118215151615613dfc57613dfb613f9d565b5b828202905092915050565b6000613e1282613ea5565b9150613e1d83613ea5565b925082821015613e3057613e2f613f9d565b5b828203905092915050565b6000613e4682613e85565b9050919050565b60008115159050919050565b60007fffffffff0000000000000000000000000000000000000000000000000000000082169050919050565b600073ffffffffffffffffffffffffffffffffffffffff82169050919050565b6000819050919050565b82818337600083830152505050565b60005b83811015613edc578082015181840152602081019050613ec1565b83811115613eeb576000848401525b50505050565b60006002820490506001821680613f0957607f821691505b60208210811415613f1d57613f1c613fcc565b5b50919050565b613f2c8261402a565b810181811067ffffffffffffffff82111715613f4b57613f4a613ffb565b5b80604052505050565b6000613f5f82613ea5565b91507fffffffffffffffffffffffffffffffffffffffffffffffffffffffffffffffff821415613f9257613f91613f9d565b5b600182019050919050565b7f4e487b7100000000000000000000000000000000000000000000000000000000600052601160045260246000fd5b7f4e487b7100000000000000000000000000000000000000000000000000000000600052602260045260246000fd5b7f4e487b7100000000000000000000000000000000000000000000000000000000600052604160045260246000fd5b6000601f19601f8301169050919050565b7f4552433732313a2063616c6c6572206973206e6f7420746f6b656e206f776e6560008201527f72206f7220617070726f76656400000000000000000000000000000000000000602082015250565b7f455243373231456e756d657261626c653a206f776e657220696e646578206f7560008201527f74206f6620626f756e6473000000000000000000000000000000000000000000602082015250565b7f4552433732313a207472616e7366657220746f206e6f6e20455243373231526560008201527f63656976657220696d706c656d656e7465720000000000000000000000000000602082015250565b7f4f776e61626c653a206e6577206f776e657220697320746865207a65726f206160008201527f6464726573730000000000000000000000000000000000000000000000000000602082015250565b7f4552433732313a207472616e736665722066726f6d20696e636f72726563742060008201527f6f776e6572000000000000000000000000000000000000000000000000000000602082015250565b7f4552433732313a20746f6b656e20616c7265616479206d696e74656400000000600082015250565b7f4552433732313a207472616e7366657220746f20746865207a65726f2061646460008201527f7265737300000000000000000000000000000000000000000000000000000000602082015250565b7f4552433732313a20617070726f766520746f2063616c6c657200000000000000600082015250565b7f4e6f7420656e6f75676820657468657220746f207075726368617365204e465460008201527f732e000000000000000000000000000000000000000000000000000000000000602082015250565b7f4e6f7420656e6f756768204e465473206c656674210000000000000000000000600082015250565b7f43616e6e6f74206d696e7420737065636966696564206e756d626572206f662060008201527f4e4654732e000000000000000000000000000000000000000000000000000000602082015250565b7f4552433732313a2061646472657373207a65726f206973206e6f74206120766160008201527f6c6964206f776e65720000000000000000000000000000000000000000000000602082015250565b7f45524337323155524953746f726167653a2055524920736574206f66206e6f6e60008201527f6578697374656e7420746f6b656e000000000000000000000000000000000000602082015250565b7f4552433732313a206d696e7420746f20746865207a65726f2061646472657373600082015250565b7f4f776e61626c653a2063616c6c6572206973206e6f7420746865206f776e6572600082015250565b7f4552433732314d657461646174613a2055524920717565727920666f72206e6f60008201527f6e6578697374656e7420746f6b656e0000000000000000000000000000000000602082015250565b7f4552433732313a20696e76616c696420746f6b656e2049440000000000000000600082015250565b7f4552433732313a20617070726f76616c20746f2063757272656e74206f776e6560008201527f7200000000000000000000000000000000000000000000000000000000000000602082015250565b7f4552433732313a20617070726f76652063616c6c6572206973206e6f7420746f60008201527f6b656e206f776e6572206f7220617070726f76656420666f7220616c6c000000602082015250565b7f455243373231456e756d657261626c653a20676c6f62616c20696e646578206f60008201527f7574206f6620626f756e64730000000000000000000000000000000000000000602082015250565b7f455243373231456e756d657261626c653a20636f6e736563757469766520747260008201527f616e7366657273206e6f7420737570706f727465640000000000000000000000602082015250565b6145db81613e3b565b81146145e657600080fd5b50565b6145f281613e4d565b81146145fd57600080fd5b50565b61460981613e59565b811461461457600080fd5b50565b61462081613ea5565b811461462b57600080fd5b5056fea26469706673582212206ac1179c0857cfdabf7772b9931933da62c5461c03b0432442618fa75e5e443664736f6c63430008030033",
  "linkReferences": {},
  "deployedLinkReferences": {}
}